:020000040800F2
:10000000884F0020DD0100082D200008611700083E
:10001000B11E0008F90C000835310008000000008E
:100020000000000000000000000000004501000882
:10003000BD0F00080000000089010008E128000849
:1000400061310008F7010008F7010008F701000816
:10005000F7010008F7010008F7010008F7010008A0
:10006000F7010008F7010008F7010008F701000890
:10007000F7010008F7010008F7010008F701000880
:10008000F7010008F7010008F7010008F701000870
:10009000F7010008F7010008F7010008F701000860
:1000A000F7010008F7010008F7010008F701000850
:1000B00051290008F7010008F7010008F7010008BE
:1000C000F7010008F7010008F7010008F701000830
:1000D000F7010008252D0008712D0008692E000881
:1000E000F7010008F7010008F7010008F701000810
:1000F000F7010008F7010008F7010008F701000800
:10010000F7010008F7010008F7010008F7010008EF
:10011000F7010008F7010008F7010008F7010008DF
:10012000F7010008F7010008F7010008F7010008CF
:10013000DFF80CD000F0C2FC00480047295000084E
:10014000884F0020224B19680868B0E8F00F80F350
:100150000988BFF36F8F4FF0000080F311884EF0D5
:100160000D0E70470000000006480068006880F32C
:10017000088862B661B6BFF34F8FBFF36F8F00DFA1
:1001800000BF00BF08ED00E0EFF30980BFF36F8F01
:100190000F4B1A6820E9F00F106008B54FF05000BF
:1001A00080F31188BFF34F8FBFF36F8F07F05AFBB7
:1001B0004FF0000080F31188BDE808401968086816
:1001C000B0E8F00F80F30988BFF36F8F704700BF6E
:1001D0005C000020EFF30580704700000648804770
:1001E00006480047FEE7FEE7FEE7FEE7FEE7FEE71C
:1001F000FEE7FEE7FEE7FEE7F12800083101000810
:100200002DE9F05F0546002092469B46884606464B
:10021000814640241BE0284641464746224600F0DE
:1002200096FB53465A46C01A914110D311461846C0
:10023000224600F07DFB2D1A67EB01084F4622464F
:100240000120002100F074FB17EB00094E41201E35
:10025000A4F10104DFDC484631462A464346BDE8A6
:10026000F09F2DE9F0410024061B254671F10006A0
:1002700005DA01240027D0EB070067EB0101161E09
:1002800073F1000605DA0027D2EB0702012567EBC0
:100290000303FFF7B5FF86460E4617469C46AC4261
:1002A00004D00025D0EB050E65EB010624B100203B
:1002B000D2EB000760EB030C704631463A466346CA
:1002C000BDE8F08140EA01039B0703D009E008C9BB
:1002D000121F08C0042AFAD203E011F8013B00F80B
:1002E000013B521EF9D27047D2B201E000F8012B57
:1002F000491EFBD270470022F6E710B513460A46A6
:1003000004461946FFF7F0FF204610BD30B50446FD
:100310000020034600E05B1C934203D2E05CCD5C0E
:10032000401BF8D030BDF0B480EA0102D40F420087
:10033000B2EB410F02D20246084611464A0042D0B3
:10034000C30DDDB2C1F3C752AD1A202D35DAC1F3AA
:10035000160141F4000204B15242C5F1200602FA2E
:1003600006F12A411044B3EBD05F23D0C4B1012D74
:10037000A0EBC35009DCF0BC4FF0004202EAC352CC
:10038000DBB200F5000000F00DBB400000F1807012
:1003900000EBC350A0F1807040EAD170490009E041
:1003A000490841EAC071A0EBC35000F500004008C5
:1003B00000EBC350F0BC00F0ECBA6142012202EB4A
:1003C0004101001BF6E7F0BC704781F00041AAE74D
:1003D00080F00040A7E780EA010210B502F0004378
:1003E000400022D04A001FD0010E01EB1261C0F381
:1003F0005600C2F3560240F4000042F40002A0FB93
:10040000022000047F39140400D0401C50EA12403E
:1004100001D44000491EC2B20C0604EBD010401CAF
:100420004008802A02D003E0002010BD20F0010027
:10043000002900DA0020184310BD30B480EA010220
:1004400002F0004530F0004221F0004013D090B19E
:10045000C30DD40DC2F31601C0F31600E41A41F423
:10046000000140F400027D34914201D3641C00E09D
:100470004900002C02DA30BC002070474FF4000025
:100480000023914201D3891A034340084FEA4101F6
:10049000F7D151B1914202D14FF0004105E002D2B3
:1004A0004FF0010101E06FF0010103EBC45028445B
:1004B00030BC00F06EBA2DE9FE4F804681EA0300A1
:1004C000C00F0C46009021F0004123F00045B8EB2E
:1004D0000200A94105D24046214690461C460B46E3
:1004E000024623F00040104347D0270DC7F30A000F
:1004F000C3F30A510290401A019040286BDAC3F30B
:10050000130040F4801B0098924620B10023D2EBE8
:10051000030A63EB0B0B01985946C0F140025046A9
:1005200000F006FA06460D4650465946019A00F07C
:100530001EFA10EB08006141002487EA115284EA98
:10054000E7731A4340D0009A62B3019A012A4FEA36
:10055000075215DC001B61EB02014FF0004202EA7A
:100560000752CDE90042001C41F5801132462B466E
:1005700000F055FA03B0BDE8F08F40462146F9E798
:10058000001B61EB0201001C41F5801300185B4168
:100590002018A2F5001747EB030140EAD570B61901
:1005A0006D4111E06D084FEA360645EAC0754FEA25
:1005B0000752001B61EB0201001C41F58011490844
:1005C0004FEA30000019514132462B4603B0BDE8D6
:1005D000F04F00F015BA0098012240000023D0EB44
:1005E000020263EBE073009821464FEAE074B8EB37
:1005F000000061EB0401E9E783F000435BE781F071
:10060000004158E72DE9FE4F81EA030404F000445D
:1006100021F0004100944FF0000B23F0004350EA1A
:1006200001045ED052EA03045BD0C3F30A54C1F361
:100630000A552C44A4F2F3340194A0FB0254C1F3F4
:10064000130141F48011C3F3130343F4801301FB3E
:10065000024400FB034E840A970A44EA815447EAA5
:100660008357A4FB076802958D0A05FB07854FEAAF
:10067000932C04FB0C542705029D4FEA065847EAC9
:100680001637B5EB08056EEB070C870E920E47EA9E
:10069000811742EA8312A7FB0201B6EB0B0164EB60
:1006A00000042B0D43EA0C335E1844EB1C50DA4671
:1006B0005146E7FB0201C5F313044FEA0B3343EA4B
:1006C00014534FEA0432019C43EA0603A4F10C04DC
:1006D0000294009CCDE900B400F0A1F903B0BDE89C
:1006E000F08F00200146F9E72DE9F04D81EA03047F
:1006F00004F0004B21F0004514464FF0000A23F0AF
:10070000004150EA050220D054EA01021DD0C5F391
:100710000A570246C5F31303C1F31300C1F30A5687
:1007200040F4801543F48013A7EB0608101BD6464F
:1007300008F2FD3873EB050002D308F1010801E06F
:1007400092185B41B8F1000F03DA00200146BDE8C2
:10075000F08D00204FF48011064684460EE0171BF2
:1007600073EB050705D3121B63EB050306434CEA45
:10077000010C49084FEA300092185B4150EA01072A
:10078000EDD152EA030012D082EA040083EA0501A7
:10079000084305D0101BAB4106D20122002306E01E
:1007A00000224FF0004302E06FF0010253101AEBF9
:1007B00006004CEB085110EB0A0041EB0B01BDE8C1
:1007C000F04D00F01DB9C10F80EAE0700844CA077F
:1007D0009623002100F0E6B896230022114600F08F
:1007E000E1B80EB5C10F80EAE0700844CA070021E5
:1007F00040F233438DE80E000A460B4600F00FF935
:1008000003B000BD0EB540F2334102910021CDE9A5
:1008100000110A460B4600F002F903B000BD00F0DB
:10082000004220F00040C10DC0F3160040F400006B
:100830007F2901DA00207047962903DCC1F1960177
:10084000C84001E096398840002AF4D04042704701
:1008500020F00040C10DC0F3160040F400007F29D5
:1008600001DA00207047962903DCC1F19601C840E7
:10087000704796398840704700F0004230F00040E1
:100880000AD0C10D01F56071C0F3160042EA0151B2
:10089000C20840071143704700200146704700001E
:1008A00030B5041E71F1000404DB4FF000444042F7
:1008B00064EB0101141E73F1000405DB1C464FF0CC
:1008C0000043524263EB04038B4208BF824230BDB7
:1008D00001F0004330B421F0004150EA010206D09B
:1008E0000A0DA2F56072C1F31301002A02DC30BCCC
:1008F00000207047440F44EAC104C100E01830BC36
:1009000000EBC25000F045B8002801DBC0F1004008
:10091000002901DBC1F1004181427047002801DB61
:10092000C0F10040002901DBC1F10041884270475D
:10093000202A04DB203A00FA02F10020704791409F
:10094000C2F1200320FA03F3194390407047202A94
:1009500004DB203A21FA02F00021704721FA02F369
:10096000D040C2F120029140084319467047202A26
:1009700006DBCB17203A41FA02F043EAE07306E0C7
:1009800041FA02F3D040C2F12002914008431946D7
:1009900070470029A8BF7047401C490008BF20F0DD
:1009A0000100704710B4B0FA80FC00FA0CF050EA75
:1009B000010404BF10BC704749B1CCF1200421FAF6
:1009C00004F411FA0CF118BF012121430843A3EBF1
:1009D0000C01CB1D4FEA00614FEA102042BF0020FE
:1009E00010BC704700EBC35010440029A4BF10BCDA
:1009F0007047401C490008BF20F0010010BC704740
:100A000010B5141E73F1000408DA401C41F1000116
:100A100092185B411A4301D120F0010010BD2DE96D
:100A2000F04D92469B4611B1B1FA81F202E0B0FA64
:100A300080F220329046FFF77BFF04460F4640EAE3
:100A40000A0041EA0B0153465A46084313D01146A7
:100A500053EA010019D0C8F140025046FFF777FF72
:100A600005460E46504659464246FFF761FF084389
:100A700005D0012004E020463946BDE8F08D002075
:100A8000054346EAE0762C4337430A986305E40AB7
:100A9000A0EB08000022FD0A44EA47540A3002D5C0
:100AA00000200146E9E7010510196941DDE9084523
:100AB00000196941BDE8F04DA2E70000064C074D62
:100AC00006E0E06840F0010394E80700984710341E
:100AD000AC42F6D3FFF730FB389300085893000878
:100AE00070B521F0004303430CD0C1F30A55002434
:100AF000D5EB040564EB0403D617AD1AB34102DB52
:100B00000020014670BD201841EB025170BD70B548
:100B10008C1810F8015B15F0070301D110F8013BA8
:100B20002A1106D110F8012B03E010F8016B01F82F
:100B3000016B5B1EF9D12B0705D40023521E0DD487
:100B400001F8013BFAE710F8013BCB1A921C03E0D5
:100B500013F8015B01F8015B521EF9D5A142D8D30D
:100B6000002070BD4FF480711C48FFF7C4FBFA21D0
:100B70001B48FFF7C0FB1B4A18491B4801F0C4FF84
:100B800017481A49086001201949087002E001203D
:100B900006F06EFC174800780028F8D01648007858
:100BA0000028F4D0124800780028F0D014E013494F
:100BB0000E48006802F074FA1149D1F81600804717
:100BC00006F048FE0E4A118AD06801F07DFB07F05E
:100BD000F3FB032006F04CFCE9E70000843F002013
:100BE000D8490020FD0E0008D24A0020A0010020B4
:100BF000120000201000002011000020A40100209D
:100C0000DC4A0020002401201849087002E001207D
:100C100006F02EFC154800780028F8D0144800781B
:100C20000028F4D0134800780028F0D04FF48072E8
:100C30005F217F2002F0ACFA17E00F4800F036FB8E
:100C400014200E4908800E490E4800F0C3FB2046D0
:100C5000611C8CB2642805D100244FF400410A487D
:100C600000F01BFB032006F003FCE6E71000002069
:100C70001100002012000020FA4A00201C01002070
:100C80000A4B0020A901002000180140012013494F
:100C9000087002E0012006F0EBFB11480078002804
:100CA000F8D00E4800780028F4D00E4800780028CC
:100CB000F0D012E00C48B0F900100C48B0F9000078
:100CC00000F0E0FB0A4801880A48008806F08CF929
:100CD00001F0F0F8022006F0CBFBEBE7110000205A
:100CE0001000002012000020B8010020BA010020EE
:100CF0008E0100208C01002000BFFEE700203B4950
:100D00000978012936D13A4909883A4A128891422C
:100D10000FDD37490988374A1288891AB1F57A7F79
:100D200007DD334909884942324A1288114488B2A2
:100D30001BE02F4909882F4A1288914205DB2C4974
:100D400009882C4A128891420ED12A490988284ADA
:100D50001288891AB1F57A7F06DA26490988244A69
:100D60001288891A88B200E0002021490988214AA6
:100D7000118039E01D49097881BB1D4909881D4A48
:100D8000128891420FDA1B490988194A1288891A78
:100D9000B1F57A7F07DD174909884942144A12885C
:100DA000114488B21CE012490988124A1288914203
:100DB00005DC0F4909880F4A128891420FD10C496E
:100DC00009880C4A1288891AB1F57A7F07DA08492E
:100DD0000988084A1288891A88B201E004E00020D4
:100DE00003490988034A118070470000D50100209B
:100DF000D2010020D001002000203D4909780129BE
:100E000038D13C4909883C4A1288914211DD394960
:100E10000988394A1288891AB1F57A7F09DD35497E
:100E200009884FF6FF72511A334A1288114488B26A
:100E30001BE030490988304A1288914205DB2D4970
:100E400009882D4A128891420ED12B490988294AD6
:100E50001288891AB1F57A7F06DA27490988254A66
:100E60001288891A88B200E0002022490988224AA3
:100E700011803BE01E49097891BB1E4909881E4A32
:100E80001288914211DA1C4909881A4A1288891A73
:100E9000B1F57A7F09DD184909884FF6FF72511ABA
:100EA000144A1288114488B21CE012490988124A77
:100EB0001288914205DC0F4909880F4A1288914235
:100EC0000FD10C4909880C4A1288891AB1F57A7F2A
:100ED00007DA08490988084A1288891A88B201E0A5
:100EE00004E0002003490988034A1180704700008C
:100EF000D4010020CE010020CC01002030B50246F4
:100F0000002300241378521C1478521C6340881E5E
:100F100081B202E012F8010B4340081EA1F1010565
:100F2000A9B2F7D1D8B230BD18490A780978491C5E
:100F3000164B1970164988540978552903D0002199
:100F40001A4611707047114909780B2900DAF9E740
:100F50000F494978522902D0532910D107E00D4991
:100F60000B4A921C13680B6052684A6007E00A49FA
:100F7000074A921C13680B6052684A6000BF00BFAA
:100F80000021024A117000BFDCE70000560100207A
:100F9000E4430020260100202E01002030B5024647
:100FA000002006E0145C044BDD68C31CEC54431CB9
:100FB000D8B28842F6DB30BDDC4A00207047000022
:100FC00008B501217C2001F085F8012144F20120BF
:100FD00001F080F801213A4801F06CF8012139480C
:100FE00000F008F94FF40040ADF8000003208DF840
:100FF000020010208DF803006946334800F06EF8B7
:101000004FF40040ADF8000028208DF80300694639
:101010002E4800F063F81820ADF8000028208DF865
:10102000030069462A4800F059F84FF4E050ADF843
:10103000000048208DF803006946264800F04EF86D
:101040004FF40070ADF8000003208DF80200182066
:101050008DF803006946204800F040F84FF48060A6
:10106000ADF8000004208DF8030069461A4800F02E
:1010700035F84FF48060ADF8000003208DF80200D1
:1010800018208DF803006946114800F027F84FF446
:101090000060ADF8000004208DF8030069460C489C
:1010A00000F01CF81020ADF8000000208DF80300BF
:1010B00003208DF802006946064800F00FF808BDCD
:1010C00000002E060002300000180140001401400C
:1010D000000C014000100140000801402DE9F041E2
:1010E000024600250026002000230024002791F856
:1010F00003C00CF00F0591F803C00CF0100CBCF10C
:10110000000F03D091F802C04CEA050591F800C029
:10111000BCF1000F31D0146800202BE04FF0010C1F
:101120000CFA00F3B1F800C00CEA03069E4220D18D
:1011300083004FF00F0C0CFA03F7BC4305FA03FCD5
:101140004CEA040491F803C0BCF1280F06D14FF01B
:10115000010C0CFA00FCC2F814C00AE091F803C0BC
:10116000BCF1480F05D14FF0010C0CFA00FCC2F89D
:1011700010C0401C0828D1D31460B1F800C0BCF1E5
:10118000FF0F34DD546800202EE000F1080C4FF012
:10119000010808FA0CF3B1F800C00CEA03069E42FD
:1011A00021D183004FF00F0C0CFA03F7BC4305FA72
:1011B00003FC4CEA040491F803C0BCF1280F05D1EC
:1011C00000F1080C08FA0CF8C2F8148091F803C07A
:1011D000BCF1480F07D100F1080C4FF0010808FAE4
:1011E0000CF8C2F81080401C0828CED35460BDE82B
:1011F000F0810000F0B50A460023002400210025FC
:1012000000F00046B6F1004F02D11D4EF16901E039
:101210001B4E7168C0F3034583B200F44016B6F567
:10122000401F08D121F07061154E766826F0706677
:10123000134F7E6012E000F48016B6F5801F06D1D1
:10124000032606FA05F4A14341F0706106E0460D5D
:10125000360103FA06F6B14341F0706122B1460D42
:10126000360103FA06F6314300F00046B6F1004FAE
:1012700002D1034EF16101E0014E7160F0BD00004A
:10128000000001400246002093680B400BB1012092
:1012900000E00020704701617047C2684A40C260A8
:1012A00070470AB1016100E04161704710B5044622
:1012B000174801684068174801F010FC1649098872
:1012C000084415490880084600882080134908888A
:1012D000C11700EB5171C1F3C701A1721049088811
:1012E000C11700EB5171C1F3C701E17206F0B2FA08
:1012F0000B2000F031F82189084420810A2000F0F9
:101300002BF8E1880844E08007F056F810BD000093
:101310007001002014010020180100208C01002021
:101320008E0100202DE9F04106460C4615461F4669
:1013300006F10802311D304603F01CFF48B92A1D92
:10134000A91C284600F0D2FA221DA11C204600F05C
:10135000F5FABDE8F081000070B50446002521468D
:10136000154800F047FF022002F0DCFC0A2C0FD1E8
:1013700012491348007800F05DFF12490880FFF71A
:10138000BDFC05460F4800880F490880284670BDFF
:101390000B2C0FD109490A48007800F04BFF0B498C
:1013A0000880FFF729FD054608480088084908809D
:1013B0002846ECE70020EAE700440040464B0020C6
:1013C000DC010020D2010020D0010020CE0100204D
:1013D000CC0100202DE9F04106460C4603231F4AAC
:1013E0001F492048FFF79EFF01251EE0A01C00EBCF
:1013F00045000288681EA11C01EB40000280881D88
:1014000000EB45000288691E04F1080000EB410072
:10141000028004F10E0000EB4500028804F10E008A
:1014200000EB41000280681C05B2032DDEDB0C4896
:101430000188A01CE1800A484188A18181886182DD
:10144000084881680848FEF7C6FF0746FFF7E7F936
:101450003080034880887080BDE8F0815001002012
:101460004A010020D84300200000C8420149097801
:1014700001707047680100200149097801707047C8
:10148000690100202DE9FC5F07460E463C463546C3
:10149000DDB9002C04DD0021012005F09BFD05E0F5
:1014A000002C03DA0121002005F094FD201E01DB51
:1014B000014600E04142A54A1180201E01DB0146A1
:1014C00000E04142A24A11803EE1012D1BD1002CD7
:1014D00004DD0121084605F07DFD05E0002C03DA5E
:1014E0000021084605F076FD201E01DB014600E0E4
:1014F0004142964A1180201E01DB014600E0414234
:10150000934A118020E1012D7CDD2046FFF75BF935
:10151000904908604FF080418F480068FEF78DFFCA
:1015200082462846FFF74FF983465146FEF7FBFEF9
:1015300080464FF0804188480068FEF77EFF834672
:101540002846FFF740F959460090FEF73EFF8246D5
:101550002046FFF738F951460190FEF73CFF8146DF
:101560004146FEF76AFF7D49086008460068FFF7BC
:1015700056F9B0F1000801DB404601E0C8F1000077
:101580007249088073480068FFF749F9B0F1000814
:1015900001DB404601E0C8F100006D4908800021F0
:1015A0006E480068FFF7BAF90AD20021694800685E
:1015B000FFF7B4F904D20021012005F00BFDC3E0D0
:1015C000002166480068FFF79FF90AD200216148B0
:1015D0000068FFF7A3F904D20121084605F0FAFCE0
:1015E000B2E000215D480068FFF78EF90BD20021C0
:1015F00058480068FFF788F905D20121002005F05E
:10160000E9FCA1E010E0002154480068FFF786F9EA
:10161000D5D200214F480068FFF776F903D20021A8
:10162000084605F0D7FC8FE0B5F1FF3F59DA2046B8
:10163000FFF7C9F8494908604FF080414648006803
:10164000FEF7FBFE82462846FFF7BDF8834651466B
:10165000FEF7BBFE80464FF080413F480068FEF732
:10166000ECFE83462846FFF7AEF859460090FEF799
:101670005AFE82462046FFF7A6F851460190FEF733
:10168000AAFE81464146FEF7D8FE32490860084668
:101690000068FFF7C4F8B0F1000801DB404601E044
:1016A000C8F10000294908802C480068FFF7B7F806
:1016B000B0F1000801DB404601E0C8F10000244918
:1016C0000880002123480068FFF71EF90AD2002194
:1016D00022480068FFF718F904D20121002005F024
:1016E00079FC31E000211B480068FFF717F90AD2A6
:1016F00000211A480068FFF711F904D200210120E7
:1017000005F068FC20E0002112480068FFF706F9A8
:101710000AD2002111480068FFF7F6F804D201212F
:10172000084605F057FC0FE000210A480068FFF763
:10173000EBF809D2002109480068FFF7EFF803D25F
:101740000021084605F046FCBDE8FC9F8C01002006
:101750008E01002090010020449200089401002096
:1017600000BFFEE710B509480021016081800F210C
:101770000748FEF7C0FD0748002101604160017283
:101780004FF4E13001F014FB10BD0000C401002053
:10179000374B00202E4B002010B5002407E0641CBE
:1017A000052C01DD002406E0022002F0BBFA00F067
:1017B0004FFA0028F3D100BF06E0641C052C00DDC1
:1017C00006E0022002F0AEFA03F096FD0028F4D104
:1017D00000BF00F04FF8052C02DD4FF0FF3010BDC8
:1017E0000020FCE710B502F06FFAFFF7E9FB4FF4B9
:1017F000E13005F04BFCFFF7B5FFFFF7CDFF00F040
:1018000001F810BD10B50A4908684968094908601F
:10181000074908684968084908600A220023044902
:1018200008684968FEF7ECFC0449086010BD000038
:10183000700100208001002084010020140100209C
:1018400070B504460D46D520084908705D204870E3
:101850000846857006480078801CC87008460471E8
:1018600002F0DAF90149487170BD0000C40100209E
:101870002E4B00202DE9FC410024002500260020ED
:10188000174908801749088017490880002711E088
:10189000C82002F067FA01AA911E684600F04EF8CF
:1018A000BDF900000444BDF902000544BDF904007F
:1018B00006447F1C642FEBDB642094FBF0F000B245
:1018C00007490880642095FBF0F000B205490880C4
:1018D000642096FBF0F000B203490880BDE8FC816B
:1018E00056000020580000205A0000202DE9FC413D
:1018F00004460D4616466B4606223B21682000F042
:1019000001FA0746BFB99DF801009DF8001040EAB2
:10191000012000B220809DF803009DF8021040EAEB
:10192000012000B228809DF805009DF8041040EACF
:10193000012000B230803846BDE8FC812DE9FC4131
:1019400004460D4616466B4606224321682000F0E9
:10195000D9F907464FBB9DF801009DF8001040EAF9
:10196000012000B220809DF803009DF8021040EA9B
:10197000012000B228809DF805009DF8041040EA7F
:10198000012000B23080208809490988401A00B23D
:101990002080288807490988401A00B228803088AA
:1019A00005490988401A00B230803846BDE8FC81FC
:1019B00056000020580000205A00002010B50020DA
:1019C0000E4908600E48006820F470400C49086019
:1019D0000846006840F44050086000200949C1F8FA
:1019E0008C0100F011F801200449086000F00CF8A7
:1019F00000200449C1F8880110BD000088812242FE
:101A0000001401400080224210B5022002F0AAF921
:101A100010BD000008B50121202000F05BFB0C2068
:101A2000ADF8000010208DF8030003208DF80200AF
:101A300069460448FFF752FB0C210248FFF72BFCD4
:101A400008BD00000014014010B500200E490860D8
:101A50000E48006820F470400C4908600846006891
:101A600040F44050086001200949C1F88C01FFF79B
:101A7000CBFF012004490860FFF7C6FF002004499E
:101A8000C1F8880110BD0000888122420014014085
:101A90000080224270B5054600241648006820F4F4
:101AA0007040144908600846006840F4004008602F
:101AB000002614E0002010490860FFF7A5FF012070
:101AC0000E49C1F888016006040E0B487C38006896
:101AD00008B1601CC4B2FFF797FF701CC6B2082E95
:101AE000E8DB15B9FFF7B0FF01E0FFF767FF20461D
:101AF00070BD000000140140888122420080224213
:101B000070B504461248006820F47040104908601F
:101B10000846006840F44050086000200D49086005
:101B2000002512E0E0090B49091D08606006040E5B
:101B300001200949C1F88801FFF766FF0020054927
:101B40000860FFF761FF681CC5B2082DEADB70BDB5
:101B500000140140888122420080224210B50E48C4
:101B6000006820F470400C4908600846006840F4A2
:101B7000405008600120094908600949C1F88801FE
:101B8000FFF742FF002005490860FFF73DFF0020F6
:101B90000349C1F8880110BD001401408C81224224
:101BA0000080224210B50E48006820F470400C49B5
:101BB00008600846006840F4405008600020094969
:101BC00008600949C1F88C01FFF71EFF0120054993
:101BD00008600549C1F88C01FFF716FF10BD000031
:101BE00000140140888122420080224210B5002466
:101BF0001448006820F470401249086008460068E4
:101C000040F40040086001200F490860FFF7FCFE27
:101C100001200E49C1F88801FFF7F6FE07E0601CBD
:101C2000C4B2FA2C03DDFFF7BDFF012010BD06484A
:101C3000803800680028F2D10349091F086000BFFE
:101C4000F4E70000001401408C812242008022420F
:101C500010B5FFF7DFFE80216B2000F0D7F80021E0
:101C60006B2000F0D3F8642002F05CF8032000F051
:101C70008BF8002000F080F8322000F0AAF8002154
:101C8000382000F0C3F800216A2000F0BFF80021DE
:101C9000232000F0BBF88021372000F0B7F8752032
:101CA00000F013F80446682C0BD101216B2000F0E2
:101CB000ADF800216C2000F0A9F81E2000F089F892
:101CC00001E0012010BD0020FCE770B50446FFF7DD
:101CD00045FFD020FFF714FFFFF788FF2046FFF7EE
:101CE0000FFFFFF783FFFFF739FFD120FFF708FF52
:101CF000FFF77CFF0020FFF7CDFE0546FFF752FF00
:101D0000284670BD2DE9F04106460F4614461D4693
:101D1000FFF724FF002141EA4601C8B2FFF7F0FEB9
:101D2000FFF764FF20B1FFF73DFF0120BDE8F08120
:101D30003846FFF7E5FEFFF759FFFFF70FFF0121D8
:101D400001EB4601C8B2FFF7DBFEFFF74FFF0DE0E6
:101D5000012C04D10020FFF79DFE287003E0012034
:101D6000FFF798FE2870601EC4B26D1C002CEFD1E6
:101D7000FFF718FF0020D9E710B50446E006010E72
:101D80001C2000F043F810BD10B50446E006010E1B
:101D90001B2000F03BF810BD70B504460025BC2C9C
:101DA00001DB012510E0622C01DB02250CE02A2C6E
:101DB00001DB032508E0142C01DB042504E00A2CD8
:101DC00001DB052500E0062529461A2000F01EF853
:101DD00070BD70B50446B4F57A7F01DD4FF47A74B6
:101DE000042C00DA04244FF47A7090FBF4F0401EC7
:101DF000C5B22946192000F009F80546264604EB2D
:101E0000D671C1F34F00FFF7C7FF70BD70B505462F
:101E10000C46FFF7A3FED020FFF772FEFFF7E6FEA9
:101E200018B1FFF7BFFE012070BD2846FFF768FE1E
:101E3000FFF7DCFE2046FFF763FEFFF7D7FE18B181
:101E4000FFF7B0FE0120EFE7FFF7ACFE0020EBE765
:101E50002DE9F04105460E4617469846FFF77EFEEF
:101E6000002141EA4501C8B2FFF74AFEFFF7BEFE76
:101E700020B1FFF797FE0120BDE8F0813046FFF763
:101E80003FFEFFF7B3FE00240CE018F80400FFF754
:101E900037FEFFF7ABFE18B1FFF784FE0120EBE73A
:101EA000601CC4B2BC42F0DBFFF77CFE0020E3E71D
:101EB00000BFFEE72DE9F0410024002500260027A1
:101EC0001148068811480788114804781148057898
:101ED0000A232A463946104803F0C8F8012001F0C9
:101EE00021FF4FF4FA7001F03DFF0B2322463146EB
:101EF000094803F0BBF8012001F014FF4FF4FA7019
:101F000001F030FFBDE8F081D8010020D6010020AB
:101F1000D4010020D50100200044004070B50446E3
:101F20000D460F211E48FEF7E6F92846691CCDB282
:101F3000205C1B4908702846691CCDB2205C1849FA
:101F400048702846691CCDB2205C15498870284627
:101F5000691CCDB2205C1249C8702846691CCDB2FC
:101F6000205C0F490871002608E02846691CCDB2A4
:101F7000215C0B48801D8155701CC6B20848C07892
:101F8000801EB042F1DC0648C078801E04494871CA
:101F9000605D887329462046FEF7ADF970BD0000EC
:101FA000374B002070B50546012211461B48FFF74C
:101FB00078F91B480178284600F006F9184841785E
:101FC000284600F001F916488178284600F0FCF810
:101FD0001348C178284600F0F7F8114801792846DF
:101FE00000F0F2F8002406E00E48015D284600F0FB
:101FF000EBF8601CC4B20B48401E0078A042F3DC32
:1020000007484179284600F0DFF800220121034803
:10201000FFF747F900200449087070BD000801402F
:10202000C40100202F4B0020DC010020704700007D
:1020300070B5002100230F22C47804B3154C246826
:1020400004F4E064C4F5E064210AC1F10403CA4069
:10205000447804FA03F184781440214309010E4CBA
:102060000678A155047804F01F050124AC400578DA
:102070006D11AD0005F1E025C5F8004109E00478D7
:1020800004F01F050124AC40044D0678761145F894
:10209000264070BD0CED00E000E400E080E100E0CF
:1020A00002490143024A1160704700000000FA052E
:1020B0000CED00E029B1064AD2690243044BDA6113
:1020C00004E0034AD2698243014BDA6170470000A1
:1020D0000010024029B1064A92690243044B9A61FA
:1020E00004E0034A92698243014B9A617047000001
:1020F0000010024030B500210022002400232D4DA5
:102100006D6805F00C0121B1042905D0082923D1FF
:1021100005E0294D056022E0274D05601FE0254DB3
:102120006D6805F47012234D6D6805F48034022546
:1021300005EB92421CB9214D554305600BE01D4D46
:102140006D6805F400351DB11C4D5543056002E076
:10215000194D5543056002E0174D056000BF00BFF3
:10216000144D6D6805F0F0010909154D6B5C0568AB
:10217000DD4045600F4D6D6805F4E061090A104DC2
:102180006B5C4568DD4085600A4D6D6805F4605103
:10219000C90A0B4D6B5C4568DD40C560054D6D6837
:1021A00005F44041890B074D6B5CC568B5FBF3F541
:1021B000056130BD0010024000127A0000093D00A8
:1021C000E4000020F400002070B504460D4600BF76
:1021D0004021204600F092FE0128F9D129462046F0
:1021E00000F059FF00BF4021204600F087FE012883
:1021F000F9D170BD70B504460D460220074908703C
:102200002820487002210548817029460220FFF7E6
:1022100017FB2046FFF7C6FE70BD00002E4B0020C6
:10222000002003498A79C97942EA012070470000F9
:10223000374B002070B506460D46002400BF3AE03B
:10224000285DD52835D1601C285C5D2831D1A01CC3
:10225000285C0A2814D1E01C285C402807D1012002
:102260001749087021462846FFF758FE07E000206E
:102270001349087021462846FFF750FE00BF18E0BA
:10228000A01C285C0B2814D1E01C285C402807D136
:1022900001200C49087021462846FFF73FFE07E061
:1022A00000200849087021462846FFF737FE00BF86
:1022B00000BF601CC4B2B442C2DBFFF7B1FF70BD07
:1022C000CA010020CB01002070B505460E46402112
:1022D0000B4800F013FE012001F024FD00240BE068
:1022E000295D074800F0D7FE00BF4021044800F0F8
:1022F00005FE0128F9D1641CB442F1DB70BD000079
:102300000038014070B588B005460E461C2101A872
:10231000FDF7F1FF01208DF804000F208DF8050076
:10232000264800788DF8060024480088000A8DF8B9
:102330000700224880788DF808002048C0788DF882
:1023400009001E4800798DF80A001C4880798DF834
:102350000B001A48C088000A8DF80C001748007A54
:102360008DF80D0015480089000A8DF80E001348FD
:10237000807A8DF80F001148C07A8DF810000F4850
:10238000007B8DF811000D48407B8DF812000B4842
:10239000807B8DF813000948C07B8DF81400002461
:1023A00006E001A8005D317821446854601C84B2C5
:1023B000112CF6DB112008B070BD0000FA4A002095
:1023C00070B586B005460E46142101A8FDF793FFAF
:1023D00005208DF8040006208DF8050014480078CB
:1023E0008DF8060012480088000A8DF80700104892
:1023F00080788DF808000E484088000A8DF80900A2
:102400000B4800798DF80A0009488088000A8DF889
:102410000B00002406E001A8005D317821446854D7
:10242000601C84B2082CF6DB082006B070BD0000EA
:10243000B0010020F0B589B006460F46202101A862
:10244000FDF759FF0D208DF8040014208DF80500CC
:10245000344800788DF8060032480078401C314935
:10246000087009208DF807000024042549E004EBDA
:1024700044012C48801C10F811202846691C8DB29C
:1024800001A90A5404EB44012648801C30F81100CD
:10249000C0F307222846691C8DB201A90A5404EB37
:1024A00044012048801C00EB4100807801A9485578
:1024B000681C85B204EB44011A48801C00EB410003
:1024C0004088C0F3072001A94855681C85B204EB79
:1024D00044011448801C00EB4100007901A94855D3
:1024E000681C85B204EB44010E48801C00EB4100DF
:1024F0008088C0F3072001A94855681C85B2601C7C
:1025000084B2032CB3DB002406E001A8005D397817
:1025100021447054601C84B2162CF6DB162009B0DE
:10252000F0BD00000A4B002070B586B005460E468F
:10253000142101A8FDF7DFFE04208DF80400072018
:102540008DF80500134800788DF8060011480088C2
:10255000000A8DF807000F4880788DF808000D48B4
:102560004088000A8DF8090000208DF80A008DF8D7
:102570000B008DF80C00002406E001A8005D317806
:1025800021446854601C84B2092CF6DB092006B093
:1025900070BD0000A901002070B586B005460E464A
:1025A000142101A8FDF7A7FE10208DF804008DF876
:1025B00005002B4800788DF8060029480088000A9D
:1025C0008DF80700264880788DF808002448408858
:1025D000000A8DF80900224800798DF80A00204889
:1025E0008088000A8DF80B001D4880798DF80C005A
:1025F0001B48C088000A8DF80D001948007A8DF834
:102600000E0017480089000A8DF80F001448807AE0
:102610008DF8100012484089000A8DF8110010480A
:10262000007B8DF812000E488089000A8DF8130097
:102630000B48807B8DF814000948C089000A8DF88A
:102640001500002406E001A8005D3178214468549B
:10265000601C84B2122CF6DB122006B070BD0000A4
:102660001E4B002070B586B005460E46142101A809
:10267000FDF741FE03208DF804008DF805000D489C
:1026800000788DF806000B4840788DF8070009485F
:1026900080788DF80800002406E001A8005D3178FC
:1026A00021446854601C84B2052CF6DB052006B07A
:1026B00070BD0000A601002010B500F001F810BDAB
:1026C0000CB50020019000903348006840F4803041
:1026D0003149086000BF3048006800F400300090C5
:1026E0000198401C0190009818B90198B0F5A06FAE
:1026F000F1D12948006800F4003010B101200090A9
:1027000001E0002000900098012843D12348006890
:1027100040F01000214908600846006820F00300DE
:1027200008600846006840F0020008601A484068E7
:10273000194948600846406848600846406840F4C7
:10274000806048600846406820F47C104860084675
:10275000406840F4E81048600846006840F0807027
:10276000086000BF0C48006800F000700028F9D035
:102770000948406820F0030007494860084640685F
:1027800040F00200486000BF0348406800F00C00C1
:102790000828F9D10CBD00000010024000200240C2
:1027A00070B586B005460E46142101A8FDF7A3FDBD
:1027B00006208DF8040002208DF805000A480078F4
:1027C0008DF80600084840788DF80700002406E0E0
:1027D00001A8005D317821446854601C84B2042C47
:1027E000F6DB042006B070BDB60100201CB504461F
:1027F00004F0CCFC1348032100234FF4FA72CDE916
:10280000001011A1164805F01BFC164804210023F6
:102810004FF44872CDE9001013A11B4805F010FCDD
:102820001A48032100234FF4FA72CDE9001018A1D1
:102830001F4805F005FC1F48006804F053FE04F033
:10284000E9FC1CBD040000204150505F44726976D1
:102850006572536572766963655F7461736B0000BE
:10286000050C00080C0000204150505F526F626F51
:102870007452756E436F6E74726F6C5365727669C5
:1028800063655F5461736B008D0C000808000020C5
:102890004150505F436F6D6D756E69636174696F10
:1028A0006E536572766963655F5461736B000000F7
:1028B000650B000800000020042808D14FF0E0213B
:1028C000096941F004014FF0E022116107E04FF087
:1028D000E021096921F004014FF0E0221161704705
:1028E00010B505F0DDFB012801D005F05FF810BD43
:1028F00010B51348006840F001001149086008460F
:102900004068104908400E494860084600680E4972
:1029100008400B4908600846006820F480200860E1
:102920000846406820F4FE0048604FF41F008860AD
:10293000FFF7C2FE4FF000600449086010BD0000C0
:10294000001002400000FFF8FFFFF6FE08ED00E077
:1029500038B500BF5021EFF3118081F31188BFF328
:102960004F8FBFF36F8F00BF04464948026840682D
:10297000521C40F1000046490A6048600121880766
:1029800000F09BF8012879D1424801880088401C5A
:10299000404A108047F23050814203DA00203E491D
:1029A000087002E001203C4908703C48007810B1F2
:1029B000012829D11FE040213948FEF763FCC8B93E
:1029C0006846FEF753FD9DF80000012805D1354803
:1029D0000088401C3349088008E09DF80000022868
:1029E00004D130480088401E2E49088001202B4920
:1029F000087000BF0CE040212948FEF743FC10B1ED
:102A000000202649087003E000202449087000BF18
:102A100000BF2548007810B101282AD11FE04021CD
:102A20002248FEF72FFCC8B96846FEF725FD9DF841
:102A30000000012805D11E480088401C1C49088060
:102A400008E09DF80000022804D119480088401EC3
:102A50001749088001201449087000BF0DE040218B
:102A60001248FEF70FFC10B100200F49087004E077
:102A700004E000200C49087000BF00BF0121880756
:102A800000F018F800BF84F3118800BF38BD0000C3
:102A900070010020BC010020880100208A01002074
:102AA000000801407A010020890100200010014047
:102AB0007C010020CA430282704730B502460020E4
:102AC00000230024158A05EA0103958905EA01041B
:102AD00013B10CB1012000E0002030BD30B502463A
:102AE0000B460A24B3FBF4F114688C4203D2148819
:102AF0000C1BA0B205E01468D4F1FF3465186C1CFF
:102B0000A0B2116030BD000010B5054B1860D9604F
:102B1000C3F81A20034B024CC4F8163010BD000055
:102B2000DC4A0020292B000870B500241A480068F0
:102B300040781949C96808701748006880781649B4
:102B4000C96848701448006800781349C9688870DB
:102B5000114A12681178104A1268D2F80300FEF781
:102B60001DFA0D4B1B681B78591C0B4BDB68981C1E
:102B7000094BD3F81A20904704460748C068C01C88
:102B800005490968097845182C70034800680078E1
:102B9000001D0149088270BDDC4A002070B5002488
:102BA000002500261F4820490988461834781E4809
:102BB0000088401C81B21D48D0F81A201948401ED8
:102BC0009047C5B2AC4226D119480078012806D0FA
:102BD00004281BD006281BD008281AD117E011485A
:102BE000C01EC0790F49C91E097A40EA012000B20F
:102BF000104908800B48C01E40790A49C91E8979CE
:102C000040EA012000B20C49088003E002E001E044
:102C100000E000BF00BF4FF480710248C01EFDF706
:102C20006AFB70BD8741002006010020DC4A0020BD
:102C300004010020B8010020BA01002010B532487C
:102C400000F024FAC4B23148007830B1012813D022
:102C5000022827D0032854D131E0AA2C03D1012027
:102C60002A49087007E04FF480712948FDF743FBBB
:102C700000202649087045E0552C0AD1AA20244995
:102C80000870552048700220224908801F490870AA
:102C900007E04FF480711E48FDF72DFB00201B4913
:102CA00008702FE01A481B49098844541A480480C8
:102CB00003201649087001201849087022E01548C1
:102CC0000088401C1349088011480988445413485F
:102CD0000078012814D110480088C01C0D490988CB
:102CE00088420DDC00200B4908800C490870084818
:102CF000C0780B490870FFF751FF002003490870A6
:102D000000E000BF00BF10BD00380140C20100203C
:102D100084410020C001002006010020BF010020E6
:102D20000401002010B500BF5021EFF3118081F3A2
:102D30001188BFF34F8FBFF36F8F00BF044640F27F
:102D40002551094800F0E7F848B140F225510648FE
:102D500000F0B9F8002005490880FFF76FFF00BFB9
:102D600084F3118800BF10BD00380140BC01002071
:102D700010B540F225510B4800F0CDF880B109485C
:102D800000F084F9C4B208480078402808DA0748FF
:102D900005490978445404480078401C02490870E9
:102DA00010BD000000440040DC010020464B002024
:102DB00010B586B0044601210420FFF78BF90121EC
:102DC0004804FFF777F90420ADF8000003208DF8E0
:102DD000020018208DF8030069462148FEF77EF9AD
:102DE0000820ADF8000048208DF8030069461C4813
:102DF000FEF774F90120ADF8000010208DF80300F3
:102E000069461748FEF76AF902940020ADF80C00F5
:102E1000ADF80E00ADF81000ADF814000C20ADF8C0
:102E2000120002A90F4800F0C5F8012240F2255116
:102E30000C4800F09AF801210A4800F053F82620C7
:102E40008DF8040005208DF8050000208DF806009F
:102E500001208DF8070001A8FFF7EAF806B010BDC1
:102E6000000801400044004010B500BF5021EFF3BE
:102E7000118081F31188BFF34F8FBFF36F8F00BFB5
:102E8000044640F225510A4800F045F850B108497F
:102E9000091D0988C8B2FEF747F840F225510448D9
:102EA00000F011F800BF84F3118800BF10BD0000CE
:102EB0000048004001F40072B2F5007F00D100BF6D
:102EC000CA430280704710B50022002340F66A14FE
:102ED000A14200D100BF0A1201249440A3B2DC43F6
:102EE000048010BD21B1828942F40052828104E045
:102EF00082894DF6FF731A40828170470246002096
:102F0000B1F5007F00D100BF13880B400BB1012049
:102F100000E00020704770B5024600240023002521
:102F2000002040F66A16B14200D100BFC1F342153D
:102F300001F01F03012606FA03F3012D02D1968941
:102F4000334006E0022D02D1168A334001E0968A12
:102F500033400C12012606FA04F41688344013B1EB
:102F60000CB1012000E0002070BDF0B50346002444
:102F700000260025002040F66A17B94200D100BFA4
:102F80001846C1F3421401F01F06012707FA06F59F
:102F9000012C01D10C3004E0022C01D1103000E0F2
:102FA00014301AB107682F43076002E00768AF4387
:102FB0000760F0BD2DE9F04786B005460E460024B7
:102FC000A24600BFA1460027B08900B100BF2F462E
:102FD0002C8A4CF6FF700440F08804432C82AC89A4
:102FE0004EF6F3100440B0883189084371890843D4
:102FF0000443AC81AC8A4FF6FF400440B0890443DF
:10300000AC8201A8FFF776F81F48874202D1DDF8AD
:1030100010A001E0DDF80CA0A88900F4004040B148
:103020000AEBCA0000EB0A1031684900B0FBF1F866
:1030300007E00AEBCA0000EB0A1031688900B0FB18
:10304000F1F86420B8FBF0F004012009642101FBD1
:103050001089A88900F4004040B1322000EBC9007B
:10306000B0FBF1F000F00700044308E0322000EB71
:1030700009106421B0FBF1F000F00F0004432C8133
:1030800006B0BDE8F087000000380140014688889E
:10309000C0F308007047C1F3080282807047000047
:1030A00070B505460C46FA212048FDF724F9214663
:1030B0002846FFF727F92178084420702146284642
:1030C000FFF7D0FA21780844207021462846FFF700
:1030D0002BFA21780844207021462846FFF770F922
:1030E00021780844207021462846FFF759FB2178B3
:1030F0000844207021462846FFF79CF921780844AF
:10310000207021462846FFF747FA217808442070AE
:10311000AA20074948705520887020780870034815
:10312000C1F803000020207070BD0000D8490020C5
:10313000D24A002000BFFEE7002001490860704726
:10314000082C004040F08001014A116070470000E7
:10315000002C00400120014908607047A48005420E
:1031600010B509480088401E0749088008460088B5
:10317000012803DD0548007800F03AF8FFF7DCFF8E
:10318000FFF7DAFF10BD00001C0100201A0100202B
:1031900070B506460C4615460121C802FEF78AFFA7
:1031A0000A480078304009490870284600F028F89D
:1031B000204600F031F805480078FFF7C3FFFFF71D
:1031C000BBFF00F005F8FFF7C5FF70BD1A01002036
:1031D00008B500208DF800008DF801008DF8020080
:1031E00001208DF803006846FEF722FF08BD0000AD
:1031F00000F07F01014A116070470000002C004080
:103200000021044A126822F4C0710143014A11608E
:1032100070470000042C004008B5002100910749C8
:10322000096821F07F01009100F07F01009A1143AD
:103230000091024A0099116008BD0000042C004072
:103240000FB4054B10B503A9044A029800F08EF89C
:1032500010BC5DF814FB000061490008FC00002070
:10326000490050EAC12018BF04204A0D18BF40F0A1
:10327000010040F2FF72B2EB515F08BF40F0020064
:10328000012808BF052070472DE9F0414F1E00EBD3
:10329000C7010446D1E9000115461E4637F0060273
:1032A0000DD02A463346FDF7ADF97F1E04EBC70368
:1032B000D3E90023FDF7FFF837F00602F1D1022F22
:1032C00025D0042F13D0062F18BFBDE8F0812A4661
:1032D0003346FDF797F9D4E90A23FDF7ECF82A46BF
:1032E0003346FDF78FF9D4E90823FDF7E4F82A46C1
:1032F0003346FDF787F9D4E90623FDF7DCF82A46C3
:103300003346FDF77FF9D4E90423FDF7D4F82A46C4
:103310003346FDF777F9D4E90223FDF7CCF82A46C6
:103320003346FDF76FF9D4E90023BDE8F041FDF71E
:10333000C2B80122FDF7D4BBFDF7BDB8024A002098
:103340001107FDF7CDBB000001FDFFFF02E008C83B
:10335000121F08C1002AFAD170477047002001E00F
:1033600001C1121F002AFBD1704700002DE9FF4F59
:103370008DB00F460546002606E025280BD0DDE976
:103380000F1290476D1C761C28780028F5D111B0DB
:103390003046BDE8F08F0024A246A1460122EC4948
:1033A00000E0044315F8013F203B02FA03F0084215
:1033B000F7D128782A2810D06FF02F022878A0F1B2
:1033C0003001092914D80AEB8A0102EB410144F0CB
:1033D000020400EB010A6D1CF0E701CF5FEA000A6E
:1033E00003D544F40054CAF1000A44F002046D1CF1
:1033F00028782E2817D115F8010F44F004042A2844
:103400000ED06FF02F022878A0F1300109290AD8D8
:1034100009EB890102EB410100EB01096D1CF2E7A8
:1034200057F8049B6D1C28786C280FD006DC4C28BC
:1034300017D068280DD06A2814D104E0742810D061
:103440007A280FD10DE044F400140AE044F480140B
:1034500001E044F440146978814202D104F58014FB
:103460006D1C6D1C2A786E2A1FD00CDC632A31D0AB
:1034700004DC002A8BD0582A11D1A3E0642A68D03A
:10348000692A0CD165E0732A2ED004DC6F2A73D030
:10349000702A04D19BE0752A6FD0782A6ED010462E
:1034A000DDE90F129047761C50E1C4F30250022868
:1034B00006D0032809D0042801CF09D0066045E1D1
:1034C00001CFF117C0E9006140E101CF06803DE185
:1034D00006703BE117F8040B8DF8000000208DF812
:1034E0000100EB46012003E057F804BB4FF0FF302A
:1034F00061074FF0000102D40DE008F10101884698
:1035000049450FDA8045F8DB1BF808100029F4D193
:1035100008E008F1010188468142FADB1BF8081037
:103520000029F6D1DDE90F23AAEB080081462146E8
:1035300000F036F9304400EB080604E0DDE90F1234
:103540001BF8010B9047B8F10108F7D22146484615
:10355000F7E00A21C4F302534FF0000B0891022B4D
:1035600004D001CFC117032B09D00AE0FF1D27F0BB
:103570000707F7E8020108E032E01FE020E000B2B0
:10358000C117042B01D140B2C117031E71F1000312
:1035900007DA4FF0000CD0EB0C006CEB01012D238F
:1035A00002E0230504D52B238DF82430012303E00A
:1035B000E30701D02023F7E7984658E00A2110E0FE
:1035C00010210EE010204FF0000B08900CE01021AD
:1035D0004FF0000B44F004044FF00809089103E099
:1035E00008214FF0000B0891C4F30253022B04D0C2
:1035F00001CF0021032B06D006E0FF1D27F00707AF
:10360000F7E8020103E080B2042B00D1C0B24FF012
:10361000000823072BD5702A07D0DDF820C08CF0D6
:10362000100C5CEA0B0C05D00EE040238DF8243022
:10363000012308E050EA010306D030238DF824303E
:103640008DF8252002239846DDF820C08CF0080C68
:103650005CEA0B0C0BD150EA010301D1630706D5DC
:1036600030238DF824304FF00108A9F10109582AC0
:1036700004D038A20B9208AA0A920BE03AA2F9E70A
:103680005B46089AFCF7BCFD0B9B9B5C0A9A521E9A
:103690000A92137050EA0102F2D10A98ADEB0000D1
:1036A00000F1200B600702D524F4803401E04FF0D4
:1036B0000109D94502DDA9EB0B0000E0002000EB79
:1036C0000B0141440890AAEB010AE00306D4DDE9AE
:1036D0000F232146504600F063F806444FF00009DE
:1036E00008E009A911F80900DDE90F12904709F176
:1036F0000109761CC145F4DBE0030CD5DDE90F239D
:103700002146504600F04CF8064404E0DDE90F1273
:1037100030209047761C0899481E08900029F5DC57
:1037200008E00A980A990078491C0A91DDE90F120D
:103730009047761CBBF10001ABF1010BF1DC214697
:103740005046DDE90F2300F019F806446D1C1BE616
:103750000928010030313233343536373839616267
:10376000636465660000000030313233343536372B
:103770003839414243444546000000002DE9F041FC
:10378000044600251E461746880404D405E0394641
:103790002020B0476D1C641EF9D52846BDE8F08195
:1037A0002DE9F041044600251E469046C80301D588
:1037B000302700E02027880404D505E0414638463C
:1037C000B0476D1C641EF9D52846BDE8F0810000A5
:1037D0002DE9FE4F06460F460025684601F0CEF85B
:1037E000002442E056F8240057F82410A0EB010A08
:1037F000BAF1000F01DB514601E0CAF100010846B1
:10380000FCF7E1FF83464FF08F41FCF716FE804640
:103810005DF824000021FDF777F816D05DF824103C
:103820004046FCF70AFE82464FF07E51FCF7CDFD84
:10383000814629F0004A0F48416A5046FDF76EF86C
:1038400012D20120A04005430EE00A48C16940465B
:10385000FDF75AF805D30748016A4046FDF75EF8C0
:1038600002D20120A0400543641C032CBADB284689
:10387000BDE8FE8F188600082DE9F84F04460D4676
:1038800021F0004000917349814211DC7249884265
:1038900001DC06D12CB120462946BDE8F84FFFF7E0
:1038A00048BD6E48002DCCBF6D496E49BDE8F88F0C
:1038B0006D49814211DD6D498142D8BF4FF0FF361D
:1038C0006DDD20462946FFF7CBFC042808BFFFF733
:1038D00035FD20462946BDE8F88F6549654F25F03E
:1038E0000045814233DD6449814219DD00263246BC
:1038F0004FF0804320462946FCF7DDFD80468A468E
:10390000012220462946FDF7EBF800223B46FCF752
:1039100073FE42465346FCF7E7FE04460D463EE082
:1039200001260022BA463B4620462946FCF7C3FD45
:1039300080460F460022534620462946FCF75CFE8F
:1039400042463B46FCF7D0FE04460D4627E04B4975
:1039500081421BDDDFF828A10226002253462046C3
:103960002946FCF74FFE00223B46FCF7A4FD8046AB
:103970000F460022534620462946FCF73DFE4246AC
:103980003B46FCF7B1FE04460D4608E003262246FE
:103990002B4600203B49FCF7A7FE04460D46224675
:1039A0002B4610461946FCF72DFE8B4682460246F2
:1039B0000B46FCF727FE07460246334888460B466F
:1039C00006217844FFF760FC52465B46FCF71AFE7E
:1039D00082462E488B463A46434605217844FFF7F7
:1039E00053FC3A464346FCF70DFE02460B46002EBA
:1039F000504659460CDAFCF75EFD22462B46FCF792
:103A000001FE01B022462B46BDE8F04FFCF7F7BDA2
:103A1000FCF751FD22462B46FCF7F4FD1C4A7A4484
:103A200002EBC603D3E90023FCF7E6FD22462B4652
:103A3000FCF7E2FD174A7A4402EBC603D3E9002300
:103A4000FCF7DDFD009A002AB8BF81F00041BDE817
:103A5000F88F0000000010440000F07F182D44543F
:103A6000FB21F93FFB21F9BF0000DC3F0000203EB5
:103A70000000F33F0000F03F0000E63F00800340FD
:103A80000000F83F0000F0BFEA580000A85800000E
:103A9000465800000E5800002DE9F04D9446CCF138
:103AA000000423F000464CEA0404524F46EAD47462
:103AB0009A46884621F00042BC4206D8454240EA78
:103AC000050442EAD474BC4204D9BDE8F04D624614
:103AD000FFF732BCAAF14055A5F17F6555EA0C0409
:103AE0000BD0022404EAAA74434DDFF810E144EA43
:103AF000D87452EA000B04D00CE0BDE8F04DFFF79B
:103B0000BBBE002C14BF012CBDE8F08D022C30D0C0
:103B1000032C32D056EA0C0B0AD0BE4220D1BA4256
:103B200009D126F0804622F080423346114617E044
:103B300000291ADB25E0DFF8C8B0FB44002C04BFE5
:103B4000DBE90001BDE8F08D012C02BFDBE90001DB
:103B500081F00041BDE8F08D022C0AD0032C0CD07E
:103B6000BA4212D1B8F1000F0BDA23482549BDE85B
:103B7000F08D28462449BDE8F08D28467146BDE801
:103B8000F08D1D482149BDE8F08D921B12153C2A8D
:103B9000C4BF19481D490EDCBAF1000FBEBF12F1B7
:103BA0003C0F0020014606DB6246FCF79DFD21F03C
:103BB0000041FFF761FE002C08BFBDE8F08D012C2D
:103BC00004BF81F00041BDE8F08D114A114B022C79
:103BD00007D0FCF711FD2A46BDE8F04D0A4BFCF773
:103BE0000BBDFCF709FD2A46BDE8F04D064BFCF77E
:103BF00006BD00000000F07F182D4454FB2109C0D1
:103C0000A2570000FB21F9BFFB210940FB21F93F2E
:103C1000075C143326A6A13C30B500210024002304
:103C20000E4880780D4DED7828440C4D2D794419BF
:103C3000002205E00A48805C184483B2501CC2B2DE
:103C40000748401E00789042F4DC181981B2FF2921
:103C500001DDC9B200E0C9B2C8B230BDC401002064
:103C60002F4B00202DE9F0410446E07800F0C0061B
:103C7000E07800F03F05607800F0010098B1EF10A7
:103C80002846E91705EB5171C910A5EBC101491C84
:103C900001F0FF080B48006820B10A48414602685D
:103CA0003846904700BF607800F0080030B1054802
:103CB000406818B1B011034A516888470020BDE838
:103CC000F0810000E001002010B50420FEF7F4FDB3
:103CD000104800681049B0FBF1F0104908700D4819
:103CE00000680D49B0FBF1F442F2107044430A2021
:103CF0000B4908804FF0E020006940F002004FF0CF
:103D0000E021086108464461006940F00100086153
:103D100010BD0000D000002040420F00F80000203D
:103D2000FA00002070B5044604F0BAF9012810D05A
:103D30000B480088844206D309480088B4FBF0F59C
:103D4000284603F095FB06480088B4FBF0F100FB21
:103D500011444FF47A7104FB01F000F003F870BDD8
:103D6000FA00002070B5034600224FF0E026756986
:103D70000D4E367803FB06F44FF0E026B16910E0F3
:103D80004FF0E026B06988420BD0884202D20E1A6A
:103D9000324402E02E1A0E4432440146A24200D3BD
:103DA00000E0EDE700BF70BDF800002038B5044624
:103DB00064B120208DF8000028208DF8010030200B
:103DC0008DF8020038208DF8030004E0A3220421BE
:103DD0006846FCF789FA6A46042140F69E2002F004
:103DE00029FA01F013FE38BD3EB5044602208DF8D5
:103DF0000000CA208DF80100E3208DF802000920A0
:103E00008DF803006A460421682002F013FAA3200B
:103E10008DF8000004F0400048B1C0208DF801008A
:103E2000C8208DF80200C2208DF8030006E0A32010
:103E30008DF801008DF802008DF8030004F4C070C5
:103E400048B1C4208DF80400CC208DF80500C620B0
:103E50008DF8060006E0A3208DF804008DF805001B
:103E60008DF80600A3208DF807008DF808008DF866
:103E700009006A460A2140F6A72002F0DBF904F0A7
:103E8000030018B120208DF8000002E0D8208DF842
:103E900000006A46012140F6B62002F0CBF904F09A
:103EA000200018B1012000F0ADF802E0002000F081
:103EB000A9F804F4C07008B304F4807060B1B220B3
:103EC0008DF800008B208DF80100B6208DF80200DF
:103ED0009B208DF803000BE0B0208DF800008020BF
:103EE0008DF80100B4208DF8020090208DF80300B9
:103EF0006A46042140F6A22002F09CF904F0010079
:103F000020B3F8208DF800006A4601214FF40B60C1
:103F100002F090F9FA21072000F02CFC072000F0B5
:103F2000F3FB012000F013FC642000F0F3FC4FF4DD
:103F3000FA7000F002FDC821304800F0A3FB2820F1
:103F400000F0BCFB0A2000F0CCFB08E0D8208DF884
:103F500000006A4601214FF40B6002F06BF904F097
:103F6000020018B1D9208DF8000002E0D8208DF8A9
:103F700000006A46012140F23D7002F05BF904F056
:103F8000040018B1012000F069F802E0002000F000
:103F900065F804F0100018B10120FFF707FF02E0F8
:103FA0000020FFF703FF44F008001549488101F0A5
:103FB0002DFD00201249887304F0400018B1084616
:103FC000807B801D887304F4C07020B10C48807B16
:103FD000801D0B49887304F0140020B10848807BD1
:103FE00010300749887304F0030020B10448807B37
:103FF000001D0349887300203EBD000009E3CA028A
:10400000E00100203EB504466CB10EA1D1E90020CC
:104010008968CDE9002002916A4609214FF4976032
:1040200002F008F93EBD0AA2D2E900109268CDE97B
:10403000010200916A4609214FF4976002F0FAF8F4
:10404000F0E70000B8AAB38DB4980D355D0000000C
:10405000B8AAAAAAB088C3C5C700000038B50446EC
:1040600064B1C0208DF80000C2208DF80100C4208A
:104070008DF80200C6208DF8030004E08B22042195
:104080006846FCF731F96A46042140F6982002F0B0
:10409000D1F801F0BBFC38BD10B5C8234FF48062E5
:1040A000024940F6F63001F045FB10BD408600089D
:1040B0002DE9F04F8DB00746884615469946DDE953
:1040C000166B0024002030806B49887B5A4605A976
:1040D00001F0FCFB18B1601E0DB0BDE8F08F664822
:1040E000807A00F01400002867D09DF814000006C4
:1040F0009DF8151040EA01409DF8161040EA012095
:104100009DF81710084328609DF8180000069DF8D8
:10411000191040EA01409DF81A1040EA01209DF86C
:104120001B10084368609DF81C0000069DF81D10D8
:1041300040EA01409DF81E1040EA01209DF81F1042
:104140000843A8609DF8200000069DF8211040EA71
:1041500001409DF8221040EA01209DF823100843F9
:10416000E86004F11000C4B2286800140190686887
:1041700000140290A86800140390E86800140490EA
:1041800001984043029901FB0100039901FB0100E2
:10419000049901FB010ABAF1706F02DBBAF1885F82
:1041A00005DD01F033FC00203080401E94E7B6F9B5
:1041B000000040F48070308000BF2F48807A00F00B
:1041C000400020B305A9601C085C095D40EA01209D
:1041D00000B2A8F8000005A9E01C095C05AAA01C13
:1041E000105C41EA002000B2A8F8020005A9601D99
:1041F000095C201D105C41EA002000B2A8F8040010
:10420000A01DC4B2B6F9000040F0080030801A4882
:10421000408900F4C07008B305A9601C085C095D02
:1042200040EA012000B2388005A9E01C095C05AA1B
:10423000A01C105C41EA002000B2788005A9601D36
:10424000095C201D105C41EA002000B2B880A01D6E
:10425000C4B2B6F9000040F0700030800648807AA1
:1042600000F0030018B105A90819FFF7FBFC484648
:1042700000F0FAFE00202FE7E001002070B588B0C2
:10428000064601A801F0AAF8BDF804000021C90300
:1042900041EA5045C4034448007A00F0030056F850
:1042A000200005904048007A00F0040010B1059805
:1042B000404205903C48007AC0F3C10056F8200007
:1042C00006903948007A00F0200010B1069840426C
:1042D00006903548007AC0F3811056F82000079008
:1042E0003148008900F4807010B10798404207906F
:1042F0000598C117A0FB042301FB043100FB051046
:10430000810041EA927005900698C117A0FB042332
:1043100001FB043100FB0510810041EA9270069018
:104320000798C117A0FB042301FB043100FB051013
:10433000810041EA927007900598000E8DF8080000
:104340000598000C8DF809000598000A8DF80A0000
:104350000598C0B28DF80B000698000E8DF80C0081
:104360000698000C8DF80D000698000A8DF80E00D6
:104370000698C0B28DF80F000798000E8DF8100057
:104380000798000C8DF811000798000A8DF81200AC
:104390000798C0B28DF8130002AA0C214FF42570C3
:1043A00001F048FF08B070BDE001002030B585B0D5
:1043B000044616A207CA02AB07C3C82C03DD4FF0A0
:1043C000FF3005B030BDC82090FBF4F0401E85B230
:1043D000280A8DF80000E8B28DF801006A46022133
:1043E00040F2162001F026FF10B14FF0FF30E8E751
:1043F00002AA0C2140F6C12001F01CFF10B14FF0C1
:10440000FF30DEE7044884810020DAE7FEF2ABC427
:10441000AAF1DFDFBBAFDFDFE00100201FB50446FC
:104420004848007A00F0030054F820000190454805
:10443000007A00F0040010B1019840420190414818
:10444000007AC0F3C10054F8200002903D48007A81
:1044500000F0200010B10298404202903948007AE2
:10446000C0F3811054F8200003903648008900F40E
:10447000807010B10398404203903349019880FB4B
:104480000101800F40EA810001902F49029880FBD2
:104490000110820042EA917002902B49039880FB40
:1044A0000110820042EA917003900198000E8DF88D
:1044B00000000198000C8DF801000198000A8DF8A9
:1044C00002000198C0B28DF803006A4604214FF43F
:1044D000747001F0AFFE18B14FF0FF3004B010BDA2
:1044E0000298000E8DF800000298000C8DF8010073
:1044F0000298000A8DF802000298C0B28DF80300FD
:104500006A4604214FF4757001F094FE10B14FF02B
:10451000FF30E3E70398000E8DF800000398000CCD
:104520008DF801000398000A8DF802000398C0B2CC
:104530008DF803006A4604214FF4767001F07AFE8C
:10454000CCE70000E001002009E3CA0210B586B004
:10455000044647A00068039046A00068029046A069
:104560000068019045A00068009004F0030003A9D2
:10457000085C8DF8140003A8C4F3C101405C8DF8F9
:10458000150003A8C4F38111405C8DF8160004F0F7
:10459000030002A9085C8DF8100002A8C4F3C10151
:1045A000405C8DF8110002A8C4F38111405C8DF8C5
:1045B000120005AA032140F2264001F03BFE18B18B
:1045C0004FF0FF3006B010BD04AA032140F22A408C
:1045D00001F030FE10B14FF0FF30F3E70198059085
:1045E0000098049004F0040058B19DF8140040F0C5
:1045F00001008DF814009DF8100040F001008DF8C6
:10460000100004F0200058B19DF8150040F00100A2
:104610008DF815009DF8110040F001008DF8110093
:1046200004F4807058B19DF8160040F001008DF838
:1046300016009DF8120040F001008DF8120005AA46
:1046400003214FF4886001F0F5FD10B14FF0FF3009
:10465000B8E704AA032140F2314001F0EBFD10B1AC
:104660004FF0FF30AEE7064804810020AAE70000C3
:104670004CCD6C000CC92C003656760026466600E0
:10468000E0010020F8B505460E464FF47A7095FB20
:10469000F0F000FB06F4200E8DF80000200C8DF8E1
:1046A0000100200A8DF80200E0B28DF803006A468E
:1046B00004214FF4AE7001F0BDFDF8BD38B50446DD
:1046C000052094FBF0F084B220128DF80000E0B2D7
:1046D0008DF801006A4602214FF4AD7001F0AAFD89
:1046E00038BD38B50446052094FBF0F084B22012A2
:1046F0008DF80000E0B28DF801006A4602214FF407
:10470000AC7001F097FD38BD38B50446002000902C
:1047100004F0010020B19DF8000040F0300000904E
:1047200004F0020020B19DF8000040F00C00009061
:1047300004F0040020B19DF8000040F00300009058
:104740006A4601214FF4A47001F074FD38BD38B5FC
:104750000446012C01DA012402E0042C00DD0424CB
:10476000601EC0B200906A46012140F24F1001F075
:1047700061FD38BD2DE9FC4706460F4606F00700EF
:1047800010B1B7F5C86F03DD4FF0FF30BDE8FC870F
:104790003846FCF721F881465949FBF74EFE804622
:1047A000684600F0F5FD9DF80000022806D00428B8
:1047B00016D0082826D0102848D135E04FF08D417A
:1047C0004046FBF708FE8146FCF742F884B24D49AB
:1047D0004046FBF700FE8146FCF73AF885B238E028
:1047E0004FF08C414046FBF7F6FD8146FCF730F870
:1047F00084B245494046FBF7EEFD8146FCF728F8B8
:1048000085B226E04FF08B414046FBF7E4FD814640
:10481000FCF71EF884B23D494046FBF7DCFD8146BB
:10482000FCF716F885B214E04FF08A414046FBF7DA
:10483000D2FD8146FCF70CF884B235494046FBF7BF
:10484000CAFD8146FCF704F885B202E04FF0FF3064
:104850009CE700BF20128DF80400E0B28DF805003F
:1048600028128DF80600E8B28DF8070006F0010066
:10487000A0B101AA02214FF4EA7001F0DBFC10B1F3
:104880004FF0FF3082E70DF1060202214FF49270E3
:1048900001F0D0FC10B14FF0FF3077E706F00200D6
:1048A000A0B101AA02214FF4EC7001F0C3FC10B1D9
:1048B0004FF0FF306AE70DF1060202214FF49470C9
:1048C00001F0B8FC10B14FF0FF305FE706F00400D4
:1048D000A0B101AA02214FF4EE7001F0ABFC10B1BF
:1048E0004FF0FF3052E70DF1060202214FF49670AF
:1048F00001F0A0FC10B14FF0FF3047E7002045E782
:1049000000004843000040460000C045000040450C
:104910000000C04438B50446052094FBF0F085B291
:1049200028128DF80000E8B28DF801006A460221D5
:104930004FF4EF7001F07EFC38BD38B50446052019
:1049400094FBF0F085B228128DF80000E8B28DF8E3
:1049500001006A4602214FF4ED7001F06BFC38BD96
:1049600000BF054A128802F04002002AF9D0C2B204
:10497000014B1B1D1A807047003801407CB505466D
:1049800028494968087801AB04220D21FDF7BAF9DE
:1049900008B107207CBD9DF80700C0F301109DF809
:1049A000041001F0E00140EAE1008DF800009DF8FC
:1049B0000700C0F381009DF8051001F0E00140EA16
:1049C000E1008DF801009DF8070000F003009DF85C
:1049D000061001F0E00140EAE1008DF80200002439
:1049E0001CE01DF8040018B9002045F8240013E06D
:1049F0000D4845F8240006E055F824000B49FBF764
:104A0000EAFC45F824001DF80400401EC0B20DF871
:104A100004000028F0D100BF601CC4B2032CE0DB0E
:104A20000020B7E7140000207B14AE3E1D5A843FDF
:104A30002DE9F04F87B005460C46914601208DF8D0
:104A4000100000208DF81100FE4A1268917CFD4A8A
:104A50005268107804AB0222FDF7FAF920B14FF04A
:104A6000FF3007B0BDE8F08FC820FFF75BF90020EA
:104A70008DF81000F34A1268D17BF24A5268107820
:104A800004AB0122FDF7E4F910B14FF0FF30E8E785
:104A9000EC4A12685179EB4A5268107804AB012253
:104AA000FDF7D6F910B14FF0FF30DAE7E54A1268AA
:104AB000917CE44A5268107804AB0122FDF7C8F9F2
:104AC00010B14FF0FF30CCE7DE4A1268D17DDD4AED
:104AD0005268107804AB0122FDF7BAF910B14FF01B
:104AE000FF30BEE7D74A12681179D64A526810786B
:104AF00004AB0122FDF7ACF910B14FF0FF30B0E785
:104B00000C208DF81000CF4A12681179CD4A5268F6
:104B1000107804AB0122FDF79BF910B14FF0FF3084
:104B20009FE70F20FFF7FEF8C648806A407A8DF8AD
:104B30001000C44A12689178C24A5268107804ABD7
:104B40000122FDF785F910B14FF0FF3089E7BD482C
:104B5000806A007A8DF81000BA4A12685178B94A12
:104B60005268107804AB0122FDF772F910B14FF0D2
:104B7000FF3076E7B9F1000F07D0B248806A807A3B
:104B800040F0E0008DF8100004E0AE48806A807AC2
:104B90008DF81000AB4A12689179AA4A52681078D1
:104BA00004AB0122FDF754F910B14FF0FF3058E784
:104BB000B9F1000F07D0A348806AC07A40F0E00046
:104BC0008DF8100003E0A048C07A8DF810009D4ACF
:104BD0001268D1799B4A5268107804AB0122FDF724
:104BE00037F910B14FF0FF303BE7B9F1000F02D0B9
:104BF000C820FFF797F840208DF81000914A1268FE
:104C00001179904A5268107804AB0122FDF720F91F
:104C100010B14FF0FF3024E778208DF81000894A5A
:104C200012685179874A5268107804AB0122FDF767
:104C30000FF910B14FF0FF3013E783498889FFF770
:104C400071F800208DF810007E4A126851797D4A73
:104C50005268107804AB0122FDF7FAF810B14FF05A
:104C6000FF30FEE6774A1268917A764A52681078E9
:104C700004AB0222FDF746F810B14FF0FF30F0E62A
:104C80009DF811009DF8101040EA012B0C209BFBB1
:104C9000F0F0C6B20020A86068602860A060606084
:104CA0002060824665E0674A1268D17A654A526898
:104CB000107804AB0C22FDF725F810B14FF0FF304F
:104CC000CFE69DF811009DF8101040EA012000B2D7
:104CD000ADF808009DF813009DF8121040EA01207D
:104CE00000B2ADF80A009DF815009DF8141040EAD6
:104CF000012000B2ADF80C00BDF90810206808448E
:104D00002060BDF90A10606808446060BDF90C10AD
:104D1000A0680844A0609DF817009DF8161040EAAE
:104D2000012000B2ADF800009DF819009DF81810A0
:104D300040EA012000B2ADF802009DF81B009DF88A
:104D40001A1040EA012000B2ADF80400BDF90010CD
:104D5000286808442860BDF9021068680844686043
:104D6000BDF90410A8680844A8600AF1010000F029
:104D7000FF0AB24597DB3448D0F800C02868C11755
:104D8000090441EA10410704624600233846FBF754
:104D900068FA32460023CDE90201FBF762FA286087
:104DA0002948D0F800C06868C117090441EA1041D9
:104DB0000704624600233846FBF753FA32460023C5
:104DC000CDE90201FBF74DFA68601F48D0F800C03A
:104DD000A868C117090441EA10410704624600238C
:104DE0003846FBF73EFA32460023CDE90201FBF7D5
:104DF00038FAA8601448D0F804C02168C817000425
:104E000040EA11480F046246002338464146FBF74A
:104E100028FA32460023CDE90201FBF722FA20608E
:104E20000948D0F804C06068C117090441EA10417C
:104E30000704624600233846FBF713FA3246002384
:104E400004E000001400002018860008CDE90201EB
:104E5000FBF707FA60601148D0F804C0A068C117DA
:104E6000090441EA10410704624600233846FBF773
:104E7000F8F932460023CDE90201FBF7F2F9A06010
:104E8000A068002804DDA068A0F58030A06003E0E1
:104E9000A06800F58030A0600020E2E518860008D8
:104EA0002DE9FC5F06460F4600253D494968087814
:104EB00001AB03220D21FCF725FF10B10720BDE84F
:104EC000FC9F9DF8040000F01F008DF804009DF881
:104ED000050000F01F008DF805009DF8060000F0A9
:104EE0001F008DF80600002456E056F8240057F8FD
:104EF0002410A0EB010BBBF1000F01DB594601E0D0
:104F0000CBF100010846FBF75EFC4FF08F410090AB
:104F1000FBF793FA814601A8005D68B32149086850
:104F2000FBF75AFC834659461F48FBF786FA804632
:104F300004E01E494046FBF74EFA804601A8005D9A
:104F4000401EC0B201A908550028F2D1414648468A
:104F5000FBF773FA83464FF07E51FBF736FA824631
:104F60002AF0004B0F4881695846FBF7D7FC12D254
:104F70000120A04005430EE00A4801694846FBF7BE
:104F8000C3FC05D3074841694846FBF7C7FC02D27A
:104F90000120A0400543641C032CA6DB28468EE7B5
:104FA000140000201886000800B04C4554E3853FEB
:104FB00010B50446204600F00FF80346E01C00F050
:104FC0000BF843EAC00083B2A01D00F005F843EAE5
:104FD000801083B2184610BD014691F90020002AC6
:104FE00001DD00201EE091F90020002A01DA0420F2
:104FF00018E091F90120002A01DD012012E091F969
:105000000120002A01DA05200CE091F90220002A93
:1050100001DD022006E091F90220002A01DA0620D3
:1050200000E00720704700001CB54FF44070FDF70A
:1050300037F8FCF7D7FB0748012100234FF4FA7239
:10504000CDE9001004A1074802F0FAFF02F0ACFB22
:1050500000201CBD0000002053746172745F546115
:10506000736B0000ED270008704700002DE9FF4F2B
:1050700081B00C4691469A464FF4B47104FB01F09E
:10508000FBF7C0FB07461A4A1A4BFBF72DFB0546F8
:10509000FBF71EFC00900098FBF7DAFB1FFA80FB81
:1050A000BAF10B0F04D154B1134880F8009006E018
:1050B000BAF10A0F03D114B1104880F80090032010
:1050C0000F49087020204870084680F802B04FEA67
:1050D0001B2040EAC910C1B20948C17051460320E3
:1050E000FCF7AEFB0198FCF75DFF05B0BDE8F08F63
:1050F0009A99999999797B40D4010020D501002093
:105100002E4B002070B50446002624F001041848F8
:1051100090F8240008B1002070BD1548807A10B9BD
:105120004FF0FF30F8E71248057C807A20401049A4
:1051300008740846007CA04202D04FF0FF3600E021
:10514000002614B90A48007D18B1012001F056FF6D
:1051500002E0002001F052FF3CB100F057FC20B10A
:10516000034805744FF0FF30D6E73046D4E700001F
:10517000140000202DE9D04F98B014464FF07E580F
:105180004FF000094FF0000A0020179056480078B1
:1051900020B90120544908700020206010A811A9EE
:1051A00016AB0CAACDE9001012A914A8FEF780FFD7
:1051B00018B1012018B0BDE8D08FBDF8440000F44C
:1051C000807000287AD00C98FBF7FDFA06464FF065
:1051D0009D41FBF732F980460D98FBF7F4FA06463D
:1051E0004FF09D41FBF729F981460E98FBF7EBFA4A
:1051F00006464FF09D41FBF720F982460F98FBF7DA
:10520000E2FA06464FF09D41FBF717F91790179900
:105210000846FBF7E0F8514603905046FBF7DBF8F1
:10522000494602904846FBF7D6F841460190404671
:10523000FBF7D1F800900199FBF775F883460299C6
:10524000FBF7C3F807460399FBF7BFF80646FBF7E1
:1052500013FBCDE9060140461799FBF7BCF88346DE
:1052600051464846FBF7B7F859460390FBF75BF801
:1052700007464FF08041FBF7AEF80646FBF7FCFA15
:10528000CDE90401DDE90623FEF706FC4FF06632A6
:10529000164BCDE90801FBF7B5F9CDE90A01FBF79B
:1052A00017FB286029682068FBF78FF80B90FBF745
:1052B000B6FAB0F1000B02DB594602E010E0CBF188
:1052C00000010846FBF78DFA0646094A094BFBF731
:1052D000E7FA02D22068206004E02868206001E03C
:1052E000022067E7002065E74900002066A64C40E1
:1052F000FCA9F1D24D62803F70B5002400F022F984
:10530000002840D1782000F02DFFC4B20CB101205C
:1053100070BD7820FFF7F6FEC4B20CB10220F7E7AB
:10532000642000F0D1FEC4B20CB10320F0E7FEF718
:10533000B3FEC4B20CB10420EAE71448FFF738FE0C
:105340000546FFF703F9C4B20CB10520E0E740F2CF
:105350007310FEF749FDC4B20CB10620D8E76420F3
:10536000FFF724F8C4B20CB10720D1E701F0E8FD43
:1053700004460CB10820CBE7012000F0A1FDC4B227
:105380000CB10920C4E70020C2E700004000002063
:1053900001461148407A30B1012807D0022808D0D0
:1053A00003280CD108E0022008700BE004200870EC
:1053B00008E00820087005E01020087002E04FF0B7
:1053C000FF30704700BF0448C07C18B10878400621
:1053D000000E08700020F4E7140000200146134876
:1053E000407A30B1012808D002280AD0032810D111
:1053F0000BE04FF4804008800EE041F69C7008807E
:105400000AE04FF48050088006E04FF40060088006
:1054100002E04FF0FF30704700BF0448C07C10B17D
:105420000888401008800020F5E7000014000020E4
:1054300001460248007C08700020704714000020DC
:1054400001460F48007A30B1012807D0022809D060
:1054500003280FD10AE0FA2008800EE04FF4FA701A
:1054600008800AE04FF47A70088006E04FF4FA6092
:10547000088002E00020088000BF00BF00207047C5
:105480001400002001460E48007A30B1012807D0F0
:10549000022808D003280CD108E00A4808600BE075
:1054A0000948086008E00948086005E00848086005
:1054B00002E04FF0FF30704700BF0020FBE7000024
:1054C00014000020000003430000834233330342F2
:1054D0003333834101461248C07A082817D2DFE8E7
:1054E00000F01704070A0D101318BC20088013E001
:1054F0006220088010E02A2008800DE01420088037
:105500000AE00A20088007E00520088004E000BFC8
:1055100000BF0020088000BF00BF002070470000CF
:10552000140000200146064890F8240010B14FF006
:10553000FF3070470248C08908800020F9E700006A
:10554000140000201CB580208DF80000654A126808
:10555000917C644A526810786B460122FCF778FC13
:1055600010B14FF0FF301CBD6420FEF7DBFB0020C4
:105570008DF800005B4A1268917C5A4A5268107894
:105580006B460122FCF764FC10B14FF0FF30EAE7F4
:10559000544A1268917D534A526810786B4606222D
:1055A000FCF7B0FB10B14FF0FF30DCE79DF80500D1
:1055B000C007400F9DF8031001F0010140EA4100CF
:1055C0009DF8011001F0010140EA010494B1012CA1
:1055D00003D101214348C17431E0022C03D10021E1
:1055E0004048C1742BE021463FA0FDF729FE4FF053
:1055F000FF30B8E73B4A1268D1783A4A52681078CF
:105600006B460122FCF77EFB10B14FF0FF30AAE79A
:105610009DF8000000F00F042CB93D48FDF710FE86
:105620004FF0FF309FE7042C06D13AA0FDF708FEAB
:1056300001212C48C17402E000212A48C174FF21D5
:1056400028488172FF2027490872FF2125484172AE
:10565000C1724FF6FF71C181FF2101748174012174
:10566000017380F82210002180F823104175017524
:105670001630016041608160163880F8241080F88F
:105680002510C1844FF4FA6000F062FC10B14FF0B5
:10569000FF3068E7022000F02BFB10B14FF0FF3025
:1056A00061E72A2000F0CEFC10B14FF0FF305AE73E
:1056B000322000F009FD10B14FF0FF3053E7002019
:1056C000FFF720FD10B14FF0FF304CE7002000F055
:1056D00051FB10B14FF0FF3045E7002000F042FDD4
:1056E000002040E714000020556E737570706F72D3
:1056F00074656420736F6674776172652070726F71
:1057000064756374207265762025642E0A0000009B
:10571000E892000848616C662073656E736974696D
:1057200076697479207061727420666F756E642E6C
:105730000A0000002DE9F04385B005460E4690466C
:105740009946294890F8250020B14FF0FF3005B068
:10575000BDE8F08316B94FF0FF30F8E7002423E0EE
:10576000281B102801DD102000E0281B87B2321909
:105770003946204600F05EFD10B14FF0FF30E6E7FD
:1057800001AA3946204600F001F910B14FF0FF3070
:10579000DDE730193A4601A9FAF7B8FD10B16FF00C
:1057A0000100D4E7E01984B2AC42D9DB4FEA2820EB
:1057B0008DF8000008F0FF008DF801000A4A126819
:1057C000917E094A526810786B460222FCF740FB32
:1057D00010B14FF0FF30BAE70121034880F82510DF
:1057E000A0F826900020B2E71400002038B5044647
:1057F000282C02DD4FF0FF3038BDDCB9002000F06E
:10580000EBFB00208DF8000007208DF801002E4AE8
:105810001268917C2C4A526810786B460222FCF781
:1058200017FB10B14FF0FF30E6E700212648017565
:105830000020E1E7012000F0CFFB20208DF80000E0
:10584000012C06D100208DF80100052000F0FAFBA4
:1058500017E0052C06DC01208DF80100052000F082
:10586000F1FB0EE0142C06DC02208DF801000A206A
:1058700000F0E8FB05E003208DF80100142000F0A3
:10588000E1FB9DF80100072101EB8010C0B28DF80B
:1058900001000D4A1268917C0B4A526810786B46E1
:1058A0000222FCF7D5FA10B14FF0FF30A4E708212F
:1058B0000548817200210173012101750020FFF765
:1058C00021FC002098E7000014000020F8B50446F1
:1058D0000F4616462C4890F8240010B94FF0FF30C0
:1058E000F8BD2948807A10B94FF0FF30F8E7264A12
:1058F0001268917A244A526810786B460222FCF7AB
:1059000001FA10B14FF0FF30EAE79DF801009DF871
:10591000001040EA0125A54203DA00203070401E45
:10592000DEE7194840684088B5EB600F17DD164A7E
:105930001268517C144A526810786B460122FCF7B9
:10594000E1F910B14FF0FF30CAE79DF8000000F018
:10595000100020B100F05AF86FF00100C0E7E2B289
:10596000094B1B68D97A084B5B6818783B46FCF7F3
:10597000C9F910B14FF0FF30B2E795FBF4F0401ECB
:1059800030700020ACE7000014000020F8B5044699
:105990000D46164616B94FF0FF30F8BD1A48807A0A
:1059A00010B94FF0FF30F8E720128DF80000E0B298
:1059B0008DF801009DF80100284413494968498980
:1059C000884202DD4FF0FF30E7E70F4A1268117E90
:1059D0000D4A526810786B460222FCF739FA10B172
:1059E0004FF0FF30D9E7EAB2074B1B68597D064BF1
:1059F0005B6818783346FCF785F910B14FF0FF303B
:105A0000CBE70020C9E700001400002008B570486B
:105A1000807A10B94FF0FF3008BD002000906C4A2A
:105A20001268D17B6A4A526810786B460122FCF7F3
:105A30000FFA10B14FF0FF30EEE7654A1268517966
:105A4000634A526810786B460122FCF701FA10B1E4
:105A50004FF0FF30E0E75E4A126811795C4A526805
:105A600010786B460122FCF7F3F910B14FF0FF30CC
:105A7000D2E7574890F82400002853D00C2000901B
:105A8000534A12681179524A526810786B460122C3
:105A9000FCF7DEF910B14FF0FF30BDE73220FEF722
:105AA00041F9C02000904A48807A00F0010020B1FE
:105AB0009DF8000040F020000090454A12681179DE
:105AC000434A526810786B460122FCF7C1F910B1C5
:105AD0004FF0FF30A0E73E48407C10B1022000901C
